:020000040000fa
:080000004202040000000000b0
:020000040000fa
:1000080030210000102000001420000018200000fb
:100018001c200000302100003021000030210000a9
:1000280020200000242000002820000024020000d6
:100038003020000034200000382000003c20000060
:100048004020000044200000482000004c20000010
:1000580050200000542000005820000030210000eb
:100068005c20000060200000642000006820000080
:100078006c200000302100003021000030210000f9
:100088007020000074200000782000007c20000010
:100098008020000084200000882000008c200000c0
:1000a8009020000094200000302100003021000042
:1000b800982000009c200000a0200000a420000040
:1000c800a8200000ac200000b02000003021000073
:1000d80030210000b4200000b820000030210000ca
:1000e80030210000bc200000c020000030210000aa
:1000f80030210000c4200000c8200000cc200000ef
:10010800d020000030210000d4200000d8200000ba
:10011800dc200000e0200000e42000003021000086
:1001280030210000e8200000ec200000f020000052
:100138003021000030210000302100003021000073
:10014800f4200000302100003021000030210000a0
:1001580030210000f820000030210000302100008c
:1001680030210000fc2000000021000004210000d4
:10017800082100000c2100001021000014210000bb
:100188002e02000038020000202100002421000077
:100198003021000030210000302100003021000013
:1001a8003021000030210000302100003021000003
:1001b80030210000302100003021000030210000f3
:1001c80030210000302100002821000030210000eb
:1001d80030210000302100003021000030210000d3
:1001e80030210000302100003021000030210000c3
:0801f800302100002c21000061
:020000040000fa
:1002080000000000000000000000000000000000e6
:1002180000000000000000000000000000000000d6
:100228000000000000000000000000005c1a000050
:1002380000000000000000000000000000000000b6
:1002480000000000000000000000000000000000a6
:100258000000000000000000000000000000000096
:100268000000000000000000000000000000000086
:100278000000000000000000000000000000000076
:100288000000000000000000000000000000000066
:100298000000000000000000000000000000000056
:1002a8000000000000000000000000000000000046
:1002b8000000000000000000000000000000000036
:1002c8000000000000000000000000000000000026
:1002d8000000000000000000000000000000000016
:1002e8000000000000000000000000000000000006
:1002f80000000000000000000000000000000000f6
:1003080000000000000000000000000000000000e5
:1003180000000000000000000000000000000000d5
:1003280000000000000000000000000000000000c5
:1003380000000000000000000000000000000000b5
:1003480000000000000000000000000000000000a5
:100358000000000000000000000000000000000095
:100368000000000000000000000000000000000085
:100378000000000000000000000000000000000075
:10038800720300000c0400000000000000000000e0
:100398000000000000000000000000000000000055
:1003a8000000000000000000000000000000000045
:1003b8000000000000000000000000000000000035
:1003c8000000000000000000000000000000000025
:1003d8000000000000000000000000000000000015
:1003e8000000000000000000000000000000000005
:0803f8000000000000000000fd
:020000040000fa
:1004000000200000f8570100000000000c20000050
:10041000f857010000580100000000000020000013
:10042000002000000c200000fe57010000580100d1
:10043000f85701000c00000033730000ffff0000bc
:100440007db100003f3e00005008af002c200400aa
:10045000000000005c1a0400000000005028af00fb
:1004600018210400000000007203040000000000d6
:100470005048af001c210400000000000c040400e0
:10048000000000000f9720000e7f22000e01880060
:1004900000000000000020000000e0000200320028
:1004a000000120002002880014000700130107004b
:1004b0000000e00003003a00c08821000100200095
:1004c000020037000000200001002000810f7000b2
:1004d0000100320014000700000020000000e000ce
:1004e000020032000000020000000000f20f0200d3
:1004f000000000000040da000000fe004440a900b7
:10050000400220000000e000030032000020200034
:10051000900188004440a800000006008a1f78006f
:100520008b1f780000000600a1028800800478007c
:100530000000eb001f003700e284440054a0b40028
:100540009905ba00e284440054a0b4009906ba00a8
:10055000e284440054a0b4000006eb00476fde00c4
:10056000fd07b200ae018800636ce10003003a00b1
:10057000eaff07000000eb000e003700606ce100ae
:1005800008003a00004deb000a05e80002003900bf
:100590003420ec000af0a0008b05e900f9ff3e00d2
:1005a000040037006168e100010032000086eb00c2
:1005b0000b00070019c7ba001905ba000e04e000c5
:1005c00003003a000a00e000dbff3a0000000600ea
:1005d000fe07b200ae0288008a047800f5ff3700fb
:1005e0000cd0a300e20f4d001c00390089027800f6
:1005f000354dba000a05e800020039003420ec004d
:100600000af0a0008b05e9000f003200254dba006a
:100610000a05e800020039003420ec000af0a000ce
:100620008b05e900080032000c00e00006003200f3
:1006300015cdba000a05e800020039003420ec00ac
:100640000af0a0008b05e9008984e80054a0b400fa
:100650000b00e000e2ff3a00000006009902ba0039
:10066000055d78008b05e900f7ff3200c82ade003f
:10067000055d78008b05e900f3ff32000c00e00017
:10068000f1ff320019ddba00eeff3700b6190400a1
:1006900000000000e01b0400000000005c1a0400e1
:1006a00000000000cc15040000000000a0140400ad
:1006b00000000000841a040000000000741604000a
:1006c0000000000072030400000000000c0404009d
:1006d00000000000000004000000000022140400dc
:1006e00000000000809fbe00829fbe00849fbe006d
:1006f0000800fa00200020008f00a9003c0037000d
:10070000f2298000d12980000118a30002003200e4
:100710003a25a9000040a0000128a30001003200f2
:100720000050a0000138a300010032000060a000ca
:10073000d1342400c1bf9f0051052500d1bf9f00c7
:1007400081342400e1bf9f005120b000f1bf9f0021
:10075000b34a8000e7816100e882570065c27900f2
:10076000844f51000a003a008300e800b14a880033
:10077000e88f50000d003a000070a000c1922000e8
:1007800001438800019420001143880007003700ce
:100790008001eb00b34a88008ff99700834f510026
:1007a00002003a0011002000b14a8800614980002f
:1007b00023932000938f5000020039000040a000d6
:1007c0000b00370071498000825878007149880019
:1007d000a249800093014100838f5000010039003d
:1007e0007249880012002000c19220009108410047
:1007f0003a05ab00c2ff3a00f1498000008070006a
:10080000f04988000080fa004f02be004f01be0090
:100810004f00be0000400600809fbe00821f78008f
:100820008f20a90013003700004a80000000e0007c
:1008300012003200204a8000b080fb00e1298800cd
:10084000204a8800414a80006294200012814000c2
:10085000820f500001003900214a88001100200059
:100860000094200010881000904a80000000a00032
:10087000904a88003b25ab00ebff32004f01780027
:100880004f00be0000400600889fbe008a1f78000f
:100890000004be0002057800000020000000e00017
:1008a000040032000a0178000800be0000000200c7
:1008b00000000000e10f540001003a00d84a800017
:1008c0000a0178000800be000817020000000000be
:1008d0004f0578004f04be0000000600810178003b
:1008e0000000e00001003a00e04a8000800078004b
:1008f000030078000e150400000000000000050051
:100900006022b800060220000000d0008180d200e2
:100910000482d2008582d2000000a00002025200b0
:1009200083825a00030031000202420083824a009f
:100930000000a1000603e900f3ff3a0000000600f2
:10094000f51a00003b1e0000b8320000e3a80000ca
:10095000b96500005a1e0000a77f000004cb00000c
:1009600001000000827100000100000084a100006d
:10097000007c0000fcff0000000000000000000000
:100980000000000000000000cf05b000889fbe00fe
:100990008a9fbe008c9fbe008e1f780000057800e5
:1009a000004380000000e00002003a00000d7800e3
:1009b000690237000200220003002000d28f9f004e
:1009c000e38f9f000204be008005eb00014380001e
:1009d000110778001a0178008001eb00e80f510040
:1009e000e08f590054023e00026001000800370009
:1009f00033003700bf003700e50037001a01370029
:100a000077013700a7013700d0013700eb0137002d
:100a1000f0022000800f57004e0236000203200033
:100a2000e0fb2f000f0040000a150200000000004c
:100a3000e0fb2f000f0040000006eb003041780083
:100a400021c4b300814f510011003a009040900042
:100a500021c3b200c3c4b30090c1690083c0700059
:100a6000a041900002c1690082c0700008003a00f5
:100a700011438000110178000000eb000e15020008
:100a8000000000001d0020000d0d7800050037005b
:100a90000c06e800c1022000810f5600e7ff3a0073
:100aa0008006eb000c017800014380000000eb00a1
:100ab0000e1502000000000013002000de013700c8
:100ac0008001eb008006eb00f0022000800f570051
:100ad000d901360002032000e0fb2f000f00400088
:100ae0000e1502000000000003032000e2fb2f00af
:100af0000f0141006000b8009617020000000000de
:100b0000400d9800510d98001fa09700afa09700ce
:100b10008002b1000180b100200d9800310d9800d5
:100b20001c0020004c159800e0fb2f000f00400037
:100b3000e800400002012000004a28009a1b020041
:100b4000000000000000e00006003200a0fe2f00c0
:100b50004015980080002000000d78008c0178007e
:100b6000b5013700e40645003fa89700cfa89700dd
:100b70005fa99700efa99700809ebe008296be00f5
:100b8000240120008000eb000801be00c0fa2f0005
:100b90000f004000c016020000000000000020000e
:100ba0000000e00004003200d02c2100ef989700f4
:100bb000808f500004003200e0fd2f000f00400045
:100bc00074815700140037002a029000ba02900086
:100bd0004a039000da0390006f909700ff9097000f
:100be0000f9997009f9997000020e10001a8e1006c
:100bf00002b0e10003b8e100efff310090fe2f00ea
:100c00004015980070002000000d78008c017800dd
:100c10008306780088013700ffa89700d080700015
:100c2000f1af9f00820f5000fbff3a000100e0008f
:100c3000e9003a0000be21000000e0000d00320093
:100c40002a099000ba0990000204b0000380b000a5
:100c50000d0278001143800000438000e01b020079
:100c6000000000000000e00002003c0050fe2f00e9
:100c7000ff003700ab4a80000b00e000120032009a
:100c800040092000420a2000000151008000eb00d2
:100c9000301c0200000000005028ef005228ef0036
:100ca0000000eb00a04a8800bc1b0200000000000e
:100cb00000438000fa18020000000000104380008a
:100cc000fa180200000000000000eb003015980048
:100cd0006011b800620d9800730d98000080eb0061
:100ce00010159800800020001005980020002000ba
:100cf000000d7800104380001000e00007003a006b
:100d000031f12f00c18f9f002200200081f92f00b8
:100d10008f80400008170200000000000b00e00078
:100d2000010032000060fe001a0090006408b40068
:100d3000703eb100ea0890000100400020438800a6
:100d4000600220000a004000420e02000000000085
:100d500000067800130020008006eb000c00e00085
:100d600035013a0010f12f00c08f9f0022002000b3
:100d700081f92f008f804000104380000817020087
:100d80000000000000438000100778002c15980038
:100d900040002000000d78002a089000ba0890005a
:100da00043022000830f5000e08f580006003e00f1
:100db00040022000301598006000200010059800c7
:100dc00013002000290037006a099000fa099000fa
:100dd000e00f5100e08f590006003a00800020002b
:100de00030159800300020001005980013002000f6
:100df0001e003700f03d20006428b40020012000d0
:100e000030159800800f5700010036003e159800fd
:100e1000ba10900000032000808f500001003600bf
:100e2000301598003a1390006132b800820f5200da
:100e3000838f5a00030039006a089000301598002b
:100e40000500370062002000110009000283d8006d
:100e50000100530030159800500020001005980044
:100e600013002000010037008001eb002a60900091
:100e7000e84f40000b003a002a1090002a0a900028
:100e8000ba0a90006103b800840f5300858f5b009d
:100e900001003600040078008006eb008e0f500041
:100ea000e5003a00020220000200e00021003200ca
:100eb00010438000b000900090805000e58f5000fb
:100ec0001c00360001438000b1009000810f5100ea
:100ed00001003600010178002a1290008480500041
:100ee000828f5000030031003a119000840f5100ae
:100ef00010003600f3cf500001003a008100e900f5
:100f00004809de00f34f510001003a000110b10022
:100f10000482400024159800c18f9f002200200009
:100f200081f92f008f8040000817020000000000a8
:100f3000130020003a1190008006eb00820f57004a
:100f4000bd0039002a1090000200500020159800c2
:100f50002a0e9000ba0e900001438000e0fb2f00a3
:100f60000f0040000e1502000000000000065600b1
:100f7000e0865e002c0d98003d0d9800ba1190009f
:100f8000e2fb2f000f0141004a089000da089000b0
:100f90009617020000000000400d9800510d9800c7
:100fa0001a009000000d7800e30f5000a0003a00f6
:100fb0007c0045003a119000e1fb2f008f8040003b
:100fc000181b020000000000fa5890003a609000e0
:100fd00000c0700096003200b0fe2f0024003700e1
:100fe0000b00e000010032000060fe000003eb0097
:100ff0006022b800ba119000e2fb2f000f014100ff
:101000000a1090009a109000f80c020000000000f6
:101010000006be00e4f92f000f024200ba11900052
:10102000e2fb2f000f0141000a1090009a1090007f
:10103000a4100200000000000c1598001d15980077
:10104000ba1090006a099000fa099000010151005d
:10105000e0815900620d9800730d98003100200066
:10106000010d78000000e00007003d0080fe2f0029
:101070004015980070002000000d7800130020003b
:10108000830678006c0037000000e0006800320042
:1010900070fe2f0040159800130020008306780092
:1010a00065003700f03d20006428b4004a09900034
:1010b000da099000c0f12d0041142200800f510088
:1010c000818f59001e003a00d02c2100e09f9f0024
:1010d0002a009000ba0090004a019000da019000c6
:1010e000e0979f00f1979f00829f9f00939f9f0032
:1010f0005fa89700efa897007fa997008fb197008e
:10110000a09f9f00b19f9f00c29f9f00d39f9f0001
:101110000003eb00d5ea2d000002eb0023012000c4
:10112000c2fa2f000f0141000800be00f80c0200b7
:10113000000000006a1b02000000000002003700ef
:1011400060fe2f00401598006028ef006428ef0033
:1011500080002000000d78004a109000cf80de0053
:10116000c000dd0000002000d08f9f00e18f9f00b5
:1011700042002000a1f92f008f8040001043800022
:101180000817020000000000a2428000b342800065
:10119000104380005017020000000000a00f200044
:1011a000414380000008b8000c1a02000000000053
:1011b00013002000830678001f0037008001eb0039
:1011c0008006eb000e00e0001b0032002a099000b0
:1011d000ba0990006172b800820f5200838f5a00e2
:1011e00005003900020778000000eb000e15020030
:1011f000000000006028ef000e017800014380002d
:101200000000eb000e150200000000002a0890000c
:10121000ba0890000e005000e0805800200d9800a1
:10122000310d9800130020008006eb00020037000b
:101230001300200083067800f3b79f00341a0200e1
:10124000000000000002be00ffb197000300e000b4
:1012500002003200000d9800110d98000a0990005c
:101260009a0990000201520083815a006a0090009e
:10127000fa009000800f5100818f59002100360044
:10128000c0fe2f00401598001a80e900e30f5000bf
:1012900018003e0000002000c1fe2f00d08f9f00ec
:1012a000e18f9f0042002000a1f92f008f804000b5
:1012b00010438000f4b79f0085bf9f00081702000d
:1012c00000000000a2428000b34280001043800072
:1012d00050170200000000000081eb000143800075
:1012e0000000eb000e150200000000008fba97000e
:1012f0007fb29700040d9800150d9800000deb00cb
:101300006028ef00004380000000e000030032008e
:101310008b867600adfd3a00090037000b00e00037
:10132000060032006a019000fa019000104380002c
:1013300050170200000000000000fe00000deb004e
:1013400000f0a7000000ea000000e9004f00de0006
:10135000010037000000eb004f0778004f06be0089
:101360004f05be004f04be00cf05b10000000600cf
:101370000101780014002000030037001000200055
:1013800066815700000278006e8047000304200049
:101390000200370066815700e3ff2f00889fbe00e0
:1013a0008a9fbe008c9fbe008e1f78000004e9005b
:1013b000a20478000205be006146b8000407780068
:1013c000e2814100838747000f00a7007c010700ee
:1013d0000c01540002815500530220006022b80025
:1013e0000b80e8004220ae00a50020000201e900c9
:1013f000f6ff3900396c120064013200181ce1005c
:1014000005003200182ce100f8ff3a0063cc4200de
:10141000056c7800edff37000804e9000c0154006a
:101420006810e1004200af00650107008000eb009a
:101430003980fb0055013200010178000042b10003
:101440004220af000110a0006304e1004220af0081
:101450000100a0006b04e1004220af000120a000c9
:101460007004e1004220af000130a0006d04e100f3
:101470004220af000140a000020ce100ecff3a0066
:101480006011b8000002eb006a04e10005003a00b8
:101490002a0178003980fb003c0132000042b10093
:1014a0000b0037007904e10009003c007004e10002
:1014b0000700350070405000044140006a12b80037
:1014c0003980fb00310132000042b100f5ff3700e6
:1014d0000002eb006e04e10016003a003980fb00c8
:1014e0002a0132000042b1000003eb006a04e1006f
:1014f00005003a002a0278003980fb0023013200ff
:101500000042b1000b0037007904e10009003c0003
:101510007004e100070035007040500006424000b2
:101520006a23b8003980fb00180132000042b10084
:10153000f5ff37000042b0002500200000037800ce
:1015400086c6b2000c00320046c2b200090032006a
:1015500006c2b2000a003a00450020003980fb00b4
:101560000a013200c60620000604e10004003a0029
:10157000250020006500b0003980fb000301320027
:1015800050c2b2002400320060c4b200e300320056
:10159000881f78000f04e900cf01b000b0c3b2008b
:1015a0007300320000c2b2006f003200d0c0b2003f
:1015b0002e00320010c1b20019003200d0c0b200bb
:1015c0001700320090c1b20069003200f0c1b200d1
:1015d00067003200cf01b1004f047800c0c1b200f3
:1015e000ac003200d0c1b200d300320080c0b200e3
:1015f000d800320030c0b200d600320000c2b200c3
:10160000d400320020c2b200d200320000c2b200c8
:10161000d0003200d40037000804e8006cff370027
:101620001af0a6000b003700d7022000076c7800e4
:101630001000200085035500d78bea00970b40006f
:10164000000020000080d2000750e100faff3a00bd
:1016500006003700b70220000120a700076c7800c1
:10166000070220000110a700076c7800821f780095
:10167000811f7800120020008000eb002a00780013
:101680000303200054002000e282520021003200b7
:101690009a0078000100fd0005055500066a280043
:1016a00017002000869fbe0006242400f7002000bb
:1016b000869fbe000668290087092000869fbe001d
:1016c00006102e00575f2000869fbe0006a02c004b
:1016d000a7b923000f00a7004f03be00036ce90069
:1016e000184ce8000600500087805800fcff3100cd
:1016f0000600400087804800181ce1004220ae0030
:101700000001eb00020454000402e900f2ff3a0079
:10171000a4002000a600200047062000869fbe00ef
:10172000863e2000861f7800067122000f00a70069
:101730004f037800110009004688d80000ec4100f2
:101740000000e0004220ae000001eb000204540063
:101750006108b8006a30e100f5ff3a0000ec410092
:10176000cf00780020003700770220000f00a7008c
:1017700077002000821f7800120020000303200061
:101780000108a30003003200036c780080072000ea
:1017900000ec4300c12add00050278002a00780031
:1017a00000c0fd000080fd0000c0fd006f03600070
:1017b0004400de006a30e1004200af00074343000e
:1017c000036c4300181ce1004220ae000001eb0056
:1017d000020454008502e9000300320063836200c2
:1017e000f2ff3a00edff37004f01e9007c8057001f
:1017f000000254004200ae000402e8001fb497004b
:101800008402510002003c000140a1001100370099
:101810000501e900070220000148a3000d003a007d
:101820000138a3000900320007032000d60220007f
:101830001034e10003003200b60220001034e10051
:1018400002003a00306c78000402e90002800900ce
:10185000076c780004800900306c7800fe87570020
:101860000148a300dafe320002800900076c78000c
:10187000d7fe3700809fbe00821f7800841f78004b
:101880004f0007004f0278004f0178004f00be0064
:10189000040037000400e0004220af00f4ff2f00f6
:1018a0002a0078006033b8008b8fe8004220ae0039
:1018b000a60020008c015400838155008301e900bb
:1018c000ecff39000201e90030ec1300090032009e
:1018d0000402e900befe32001834e100f7ff3a00ce
:1018e000634c43000402e900b9fe3200066c780044
:1018f000f7ff37000804e9000140a600b4fe3700f6
:101900000201e800b2fe3400050220000130a70009
:1019100005032000a0002000e8ff37002a0078001f
:10192000006c78000080fd008582e9004220ae0056
:10193000006c7800a6fe37002a0078008c00540066
:10194000019846008582e900a1fe32000018eb00f4
:10195000fcff3700b055220051e7260092d6260042
:1019600003c7260004003700b025260011462600d4
:1019700002622600d3462700d4052000050020007f
:1019800008000900356c780091fe37000b80e800f4
:10199000040032000804e900090007008b85e80014
:1019a0008b8757000c005400008046004f077800da
:1019b0004f06be004f05be004f04be0000000600eb
:1019c0008b8fe8004220af00000006008c00e8008a
:1019d0000c015400828646000c0478000e0078004a
:1019e00044040400000000000000fe006022b80073
:1019f0000300e000a1003200c80bde009f003a00a7
:101a0000573e2000871f78005400f800889fbe00d2
:101a10008a9fbe008c9fbe000178a30006003a009a
:101a200004d8a300020032006147af000160a200a9
:101a300004c0a7000160a0003b0024002d0020008e
:101a400004f0a0000c0020000c00e00006003200b2
:101a500004f0a1000b002400e8cf40000200320097
:101a60004d0020001b0024000600fa000d06d000e7
:101a70008c8747008e0378008b1b7800809bbe000c
:101a80000f0478008004eb00dcea2d000c28e10054
:101a900011003200c22add00030032008502e90095
:101aa00005800900b61f780006002000a602880005
:101ab000452020008600200061e7af00feff3700d0
:101ac00002003700951fba00b59fba000683e900ef
:101ad000fcff3100888457006408f8006428ef0098
:101ae000550037008f0578000d06e9000c800900cd
:101af000809feb000300e90000800900b25d7800e0
:101b0000038155008001eb008d00d0000f00a7007d
:101b10008000eb000d00d10002000900b25b7800ec
:101b200080dbeb000000e900fbff3a0081875700f3
:101b30000d06e9000c800900c70f48003a0031008b
:101b4000c7057800470578008d00450060864d0088
:101b5000640354008903780064034300e88353005e
:101b6000070039003608e10036e0e100faff3400f2
:101b70003650e10036d8e100f8ff31002a00370086
:101b800000002000a10f20006203470004f0a7001e
:101b90003600be00a10288008d00d1008e037800bf
:101ba0000676200061e7af00feff37000200090063
:101bb000371b78003708bb003798bb008100e9006d
:101bc000fcff3a006a322100feb097007fb8970010
:101bd0000100b8008a0350000a0020001a00a0008b
:101be0000000eb001a00a700feff370004a0a700ca
:101bf0000060fe00421c020000000000070b78009d
:101c0000b109b000010b780061e7a80000000000f6
:101c10000000000004b8a30061e7af00feff3a0037
:101c2000641c020000000000e20347000000eb001b
:101c3000979b4600971b48000d00d100008046008e
:101c400080815100b2ff310080814100a5ff3a0040
:101c500000ff23006027b6008027eb001e009000e5
:101c6000ae0090000080fa004f06be004f05be0097
:101c70004f04be005400f9008027eb006428ef00f9
:101c800000000600ee874700889fbe008a9fbe00c6
:101c90008c9fbe008e1f7800000678000d4020004b
:101ca0002e4380006428ef00002020000100200067
:101cb000b0b79f00c1b79f007a805700f41a0200a6
:101cc00000000000d0b79f00e1b79f00f2b79f006f
:101cd00083bf9f00890020000004eb002e00370026
:101ce000cfea9700e9cf420005003600100020003f
:101cf00054110200000000000000eb004b00370010
:101d00007fb597008fbd97000d00e9007fb3970066
:101d100086006000050032008000eb000a007000c1
:101d20008b80700061054000e08548006168b80064
:101d30005fb19700efb1970000004100818049003a
:101d4000d0b79f00e1b79f008a0f50008b8f5800db
:101d5000100039004020200001002000bfb2970091
:101d6000808f5200300031007a805700f41a020050
:101d700000000000d0b79f00e1b79f00f2b79f00be
:101d800083bf9f00800f5500818f5d0001003600ea
:101d90000804e9000804e8001c007800800f5400e3
:101da000cfff3900000ee8005fb09700efb097005a
:101db000aa1a0200000000000000e00016003a002d
:101dc0005fb29700efb297004200200003002000ae
:101dd000c020200001002000d817020000000000f1
:101de0000000e0000c003a00e07b20000007470004
:101df0002e4388005fb09700efb09700e41902000f
:101e0000000000000000eb00541102000000000080
:101e100010002000050037008904e900deff3a00c9
:101e200010002000010037000000eb004f07780091
:101e30004f06be004f05be004f04be00ef00b100cc
:101e400000000600889fbe008821ef009221ef006d
:101e50009c21ef00a10920000001eb008007200079
:101e60001310200080497800814978008249780069
:101e7000020880000200a00071052000600420001c
:101e80000310200080497800814978008249780059
:101e90000001ab00feff3a000221ef00a109200083
:101ea00012002000800720001310200080497800d5
:101eb0008149780082497800020880000200a00071
:101ec0007105200060042000031020008049780084
:101ed00081497800824978000001ab00feff3a009a
:101ee000000880004c00de0065006000e10f50003b
:101ef00004003a0001022000020880000280600015
:101f0000fdff320008402200490f2000c84288002f
:101f1000d9428800c8428800d942880003e82300db
:101f2000a34288005628ef000001200040438800ab
:101f3000c904070080e1a8008141a900f00f2c002e
:101f4000211f80000101600001802100828070005b
:101f5000211f8800d31e8000030160000170210052
:101f600082807000d11e880001fc2f00231e80009b
:101f7000038160006200b300221e88007040a80048
:101f8000121e8000828060006101b300111e880073
:101f9000ec03b6000150210080807000611f8800b2
:101fa000c0082000b24280000091b900a142800028
:101fb0000008b800810041001705070000ff2f004e
:101fc0005701070000942000d04a8800c0922000ea
:101fd000e04a8800e04288000800be004f04be00ce
:101fe00000000600e6874700889fbe008a9fbe006b
:101ff0008c9fbe008e1f78005429ef006428ef00ec
:102000006028ef005e28ef005028ef005228ef0014
:102010008cff0700e08c20000008eb00c04280002d
:10202000d1428000d0468800e1468800a24280006c
:10203000b34280004518dd00cb10de008100700047
:102040004510dd006022b8006033b8000002520085
:1020500081825a0060035b00e0835b00619b21008a
:1020600080912000fa020700ff0407000006be006e
:10207000f0b79f0081bf9f00ae8d2000ca2584006d
:10208000db2584000060fe00f70407000004be00aa
:10209000c0428000d1428000cc09dd004400de0057
:1020a00000807100c408de000c0154008d815c00ca
:1020b000800f5100818f5900040036000c0640004b
:1020c0008d86480010002000fc050700e0428000db
:1020d000900890000100e000050032008000eb0055
:1020e00011089800f8b79f0089bf9f0014003700bf
:1020f0007fb197008fb997000204540083845c007d
:10210000be0f5400ae8f5c000d003600e00f55008e
:10211000e08f5d0004003c006008e20002003a002d
:102120000a01be0045010700170407000000e00097
:1021300003003200f00f200098050700700507002b
:102140000140fe00cfff37001600fa00889fbe0056
:102150008a9fbe008c1f78008204780003057800f7
:1021600004047800827f25001300200082b79f00be
:1021700093b79f000fb197009fb1970092bf9f0048
:10218000a3bf9f000800e00001003a007c845700d4
:102190000006eb008005eb00880278000b02780057
:1021a0008a01780009017800fc110200000000009b
:1021b0000000e000360032001802be00820020005d
:1021c000030020000021200001002000d817020099
:1021d000000000000000e0001e003a001802be00ef
:1021e0001fb89700afb89700e00f5000e08f58007d
:1021f0000f0032000400be001fb99700afb997006e
:10220000820f5200838f5a00090039000b00e00052
:102210001c003a00284190009b0020000204e000ce
:10222000010035004b002000a8049000daff3700c1
:102230008200200003002000402020000100200038
:10224000d8170200000000000000e0000f0032007c
:102250001c002000e30f55000d00360028019000ff
:1022600002055500630555000a854400240020003e
:102270000500200038004200a8804a00e304410025
:10228000c5ff3700ccff2f00010037000086eb00b0
:102290000c0078004f0678004f05be004f04be00ca
:1022a0000080fa00000006000a00fa00889fbe00c5
:1022b0008a9fbe008c9fbe00300798004f07980091
:1022c000c0002000010020004a1c020000000000a5
:1022d0000002be00800578008080e8000100a100b7
:1022e000818747004e0590008000eb00822120008e
:1022f000030020000a007800c01602000000000061
:10230000330037000040eb00504798000a00780087
:10231000b040780021479800b040780031479800dd
:10232000104078004047980063004500104f780047
:102330004a409000104798002a409000e84f400023
:1023400004003200140020000004e00005003d00fd
:1023500001003700840020003e0090000000e000f3
:10236000160032001e067800e60645001e049000a6
:10237000ae0490008002eb008c0178000d01780023
:102380000800be00fc110200000000000000e00098
:102390000a003200f03d2000204388000003eb00db
:1023a000d5ea2d000002eb008c0178000d017800c9
:1023b0000800be00a4130200000000001e00780008
:1023c00080855500e6855500660040000005450003
:1023d000e68f5500cbff3e006428ef00ce0790004b
:1023e0004f06be004f05be004f04be000080fa003d
:1023f000000006006022b800889fbe008a9fbe00d1
:102400005400f8000500e0004220af008f02780081
:10241000e48242000178a30006003a0004d8a30039
:10242000020032006147af000160a20004c0a700b3
:102430000160a000a10288008000eb0061e7af000e
:10244000feff3700030037000080e8004200af00c5
:102450005420ec008301e90029003900821a780039
:10246000d1002000f6ff2f00f70f20003243780044
:102470008301e90005003900b24878008301e900d2
:1024800003003900b2437800020037000430a00096
:102490000420a0001004ba009084ba00889abe00fc
:1024a000869abe00e30f62000b0032000683ea004a
:1024b00087c3ea0008056300898563000400a7005c
:1024c0000a03be0008057300898573000410a70085
:1024d0000a03be006044b8000803530089835b0010
:1024e000ec0f6200030032008003eb000430a70011
:1024f000f60fb200ea82520087007300d2ff32006a
:10250000a6028000862278008022780001007800f0
:102510005400f9004f05be004f04be000000060045
:10252000889fbe008a1f7800000578008800200080
:102530000900200010c0b3000a00e00001003400d0
:102540000040eb00610060004500dd00880078007d
:102550000150a1000104700009a0a00009c0a00062
:1025600009f0a00076a1a8009f20a9009f00a90063
:102570008f00a9008f20a90076a1a900c45c2100ca
:102580008001eb000006200001002000000178001f
:10259000e1862000c0922000381b020000000000ed
:1025a0000002eb00034a210000022000010020008d
:1025b00000017800818f200000942000381b020069
:1025c0000000000080052000e04988000000e800cd
:1025d000804a880040a82100d04988004067210037
:1025e000704a88000af0a7000a05ea000a2a880053
:1025f000c8298800d929880008f0a000c8298800c7
:10260000d929880011002000400020000008dd00ca
:1026100021002000efc0600002cfb3000240600044
:1026200001407000d0e0b700521c02000000000022
:102630004f0578004f04be0000000600889fbe00d2
:10264000800478000202be008081eb000900e000f7
:1026500038003200890890004808de0035003a0052
:1026600008502000fd8f50001100360068512000f6
:1026700010052000808f50000d003600c852200049
:1026800066004000808f500009003600885320000b
:1026900077004000808f50000500360008002000c1
:1026a00063004000808f500001003e0008002000c1
:1026b0000401be00c0428000d142800054180200d4
:1026c00000000000c80190000000e0000d00340090
:1026d000400498001858a3000d0032001850a100c3
:1026e0001800e0000a003d0018f0a1001850a100f9
:1026f00018f0a0009800900001a0a000110498001c
:10270000030037000000ea00400498001850a000c1
:102710009908900001f0a000910c98009908900091
:102720000150a100910c9800990890000160a1004f
:10273000910c9800030078004f04be0000000600d2
:102740000000fe006022b8000178a30006003a00f5
:1027500004d8a300020032006147af000160a2006c
:1027600004c0a7000160a000809fbe00829fbe0041
:102770005400f800a10288000300e0002c003200a1
:1027800067002000e39f5300060020000600e000e1
:1027900004003200f7bf9f000010a70004f0a00063
:1027a0000010a1000000a10061e7af00feff3700ac
:1027b000ffbb97008080eb0090c0ba00901fba006a
:1027c000cf9f60000080e8006638e10005003a0015
:1027d00090c0ba00cf9f60009000ba00cf9f600009
:1027e0000080e8000000e0004220af005420ec0030
:1027f00004f0a700e383530004f0a100cf8fea00a8
:1028000004003a00070141008781510007003600ab
:10281000e7ff370000d9eb008301e9000300320035
:102820008703e900fbff3a00e1ff37008f87e900eb
:102830005400f9004f01be004f00be00f80c040028
:10284000000000006aa8bf003a003200cfb897002d
:10285000cd08de0037003a004460af0035003a0092
:102860006c08ac0033003a003600f8003200f80083
:102870003400f8000000f800849fbe00869fbe0070
:1028800035438000c64a8000374b80009502130014
:1028900037831800978318004260ef00a486200059
:1028a00084017800148210001b0032006200420094
:1028b0003028e10030b0e10030b8e100f8ff33002b
:1028c000849fbe00869fbe00b08210003083180037
:1028d000b08318004220af0094097800548a420067
:1028e000540a4b00548a4b00064821000700200080
:1028f000869fbe00b01f7800b01f78000040060021
:102900004260ef004f03be004f02be00100a980065
:102910008000eb00e2ff37004f03be004f02be0015
:102920000000f9003400f9003200f9003600f90027
:102930006c08a9004f01be00cf00780000400600df
:10294000889fbe008a9fbe008c9fbe000004780056
:102950000105780082047800830578003b25ab00f0
:1029600001003a008f20a800890f54002100320096
:10297000341a0200000000000006be000000eb0058
:10298000d00598008f20ab0003003200c04020002b
:102990001a1c020000000000088154008800450055
:1029a0000b0078000817020000000000000444003b
:1029b000890f54000d003200341a0200000000009c
:1029c0000c0150008d815800c0428000d14280002f
:1029d0004e0add004200de0000007200c208de0088
:1029e000800f5100818f5900e6ff3900004a210015
:1029f000d0059800904a80000020a000904a8800ee
:102a0000080078004f06be004f05be004f04be0010
:102a1000000006008002eb000f00a7008082eb00a0
:102a2000e08140004220af0000000500851f7800d3
:102a3000801fe800030090000200e1004200af00a8
:102a40000200780023029000b3039000430390003b
:102a500007034300cf00e9001a003200840353004b
:102a60000038e1004200af00e003500003003200f4
:102a70008702e90005800900b45878000620e100cb
:102a80004200af0043029000870350000300320071
:102a90008702e90005800900b45878008080500062
:102aa0004f00e0000200320093091000a4019800da
:102ab000e30390000700e0004220ae0007000100a1
:102ac00000000600000242000620e1004200af00c4
:102ad0000702520000017800f1ff3700c800de0055
:102ae0002c003200120280004811dd004460af006b
:102af0000270a000cf1f71006200b8004001b0005a
:102b0000021020000200e0000300330083e0af0069
:102b1000020040001c0037008300ae001a0037009e
:102b20000200200001002000810171001600320027
:102b3000801f780000002000f01b02000000000051
:102b4000809fea000000200001002000f01b02002e
:102b50000000000000017800cf01e9004f0078007c
:102b60008000eb0002f0a6000230a700060037004c
:102b7000f4ff210084816100044020000321b8009b
:102b80000200400083804800f01b020000000000ab
:102b9000809fbe0000000600889fbe008a9fbe0086
:102ba0008c9fbe0000047800010578008204780044
:102bb00083057800890f54001d003200341a02008a
:102bc000000000000006be000000eb00e0059800d9
:102bd0008f00ab0003003200203720001a1c0200d7
:102be0000000000008815400080045008b007800b8
:102bf0000e1502000000000000044400888f5400fd
:102c000009003200341a0200000000000c015000dc
:102c10008d815800c0428000d1428000800f510059
:102c2000818f5900eaff3900c05c2100e00598005f
:102c3000f04980000030a000f049880008007800ca
:102c40004f06be004f05be004f04be000000060048
:102c5000801feb00811f7800801f7800861f78009e
:102c6000851f7800841f7800541b020000000000bc
:102c7000341a0200000000008003eb004f82530072
:102c8000cf825b004f835b00cf01780014003200dd
:102c9000a7862000971978000b00330084194000a4
:102ca00085994800861949008499be0086197800e4
:102cb000cf197800cf19780000002800801978001b
:102cc000f48b5100000006008419500085995800cb
:102cd00086195900020009008019eb00f4ff370043
:102ce000e487570000000600889fbe008a1f780016
:102cf0000004be00020578000800370008007800d4
:102d0000ac1b0200000000000000e00003003200e5
:102d1000080890006e150200000000001800e00096
:102d20000f003200341a0200000000003901500088
:102d3000a9815800ba0f5100aa8f5900efff360041
:102d400007003700341a020000000000390150006b
:102d5000a9815800ba0f5100aa8f590004003e0003
:102d60003b05ab00f7ff32001000200001003700e8
:102d70000000eb004f0578004f04be000000060085
:102d80000400e00021003200800278006208b800f0
:102d900036002000110009004688d80000014100db
:102da0000380b0000000eb00a7028000a3028800af
:102db00061e7af00feff37000100e0000c003200c9
:102dc0000402e9000200a70006003700d25aba0048
:102dd0000402e9000c00390002003700b25aba00c0
:102de000925aba00c2daba000281e80054a0b400d4
:102df00063025200f9ff3100620242000200330018
:102e000004800900b25aba00a70288000000060038
:102e1000e00140000200780020003200c30390006f
:102e20003303900013029000930253000683430083
:102e3000840353000028e1004200ae000500780042
:102e4000800278000538e1004200ae008702780079
:102e50008503e9000200390007800900315a780033
:102e60000620e1004200af0043029000050350003d
:102e7000030032008603e90007800900315a780018
:102e80009309400094019800d30390008080500083
:102e90000700e0004220ae0007000100000006002d
:102ea0000000e0004220af0010000500881f7800fd
:102eb000829fbe0000047800341a02000000000067
:102ec000809fbe00f80390000700e000070032007a
:102ed00008007800e480570068815700070001006f
:102ee000e88757004f04780000000600100020001b
:102ef0001800e000faff3200341a0200000000005f
:102f00007fb99700efb99700020050008380580006
:102f10005fb99700cfb997000200e1000388e10094
:102f2000f2ff34000000eb00edff37000080ea0004
:102f30008180ea00850020000632280087db2e0011
:102f400010003700b25a7800b252780004006800ce
:102f5000840020008100d1000080d30002003900ed
:102f600006006800878068008100d1000080d300df
:102f70000200390006006800878068000402e9004a
:102f8000f4ff3a00e2815100eeff3b00e281410094
:102f900004003200124068004400200003002000ba
:102fa000ecff37000080ea008180ea0000000600a4
:102fb0000400fa00881f78008a9fbe000003be004c
:102fc000b0bf9f00c1bf9f00020478000405be008f
:102fd0000000eb00e00f5300e08f5b000b003a00b5
:102fe0000f0037006a805700f41a0200000000004a
:102ff000800f5500818f5d0003003900820f55005e
:10300000838f5d0005003900640454000800e0006f
:10301000f4ff3a000000eb00010037001000200030
:103020004f05be004f0478000080fa000000060043
:103030000000fe0061e7af00feff3700003b8800a4
:10304000274380006428ef00013bb8006132210073
:10305000b709b00081005300421c020000000000cc
:10306000313b88008000eb00373b880061e7a80017
:1030700000000000000000000200a600641c020026
:10308000000000008003eb000208a30061e7af002e
:10309000feff3a0061c7a9000200a700641c0200fd
:1030a0000000000000000600881f78000002eb000e
:1030b000e00f5100e08f5900140032000004eb00d3
:1030c000e00f5100e08f590003003d006001110046
:1030d000e0811900180020000200400083804800b1
:1030e000421add00ce12de00850272004212dd00bf
:1030f0000401be0080040200000000000002e9009c
:103100000800e000010032000402ea000400780038
:103110004f047800000006005e0800000200000076
:103120008000000050080000040000008000000043
:103130005409000002000000800000006008000048
:103140000200000080000000620800000200000091
:103150008000000064080000020000008000000001
:103160005609000002000000800000005a0900001b
:1031700002000000800000005c0900000200000066
:103180008000000000000000a000220001002000dc
:103190006a015000e08158000a003200f01b020072
:1031a000000000004800de00c808dd0001007000db
:1031b000d22c2100000051004220ae00000005008a
:1031c0001000050000002000010020000160a000a8
:1031d000f01b0200000000004c01de00c409dd000d
:1031e000030171000080ea00f4ff20000400600089
:1031f000f0ff3700110020000f00a70001002000a1
:103200004209200007003700110020000f00a7002e
:10321000010020000000e0004220af000000050097
:1032200042082000800990004818de004220ae00cd
:1032300000000500431ade000400a1000401410063
:10324000ef8161001218a5000080d200e0804000ec
:103250001298ad00000006000000eb00c04a880094
:1032600000962000304b8800c024200030438800a6
:10327000a08620000000e000020032006a28ef0073
:103280006c68ef0040002000801288004ea2ef0022
:10329000210020008008dd00a5c0bf006f40600055
:1032a00001407000a5e0b7009460a80051e2a800ba
:1032b00000000600889fbe000004be00c0428800d7
:1032c000d1428800401fb0000180b000823e200043
:1032d000030020008004020000000000a0428800db
:1032e000b142880000122a0071002000080040004e
:1032f0008980480002242400f3002000800402009a
:1033000000000000404388004f04be00000006009b
:103310000001eb006022b8000100e0001100320063
:10332000b11fe9000e003300f3ff200031037800e5
:10333000cc33de00030363000203430000a8a500b2
:103340001638a5000428ad004200aa004220ae00b5
:103350001638ad008502e800cf1fe900f3ff3b00ff
:103360008f87e9000400780000000600c225840071
:10337000d3258400e00f5100e08f590005003c0088
:10338000e0428000900890000106b2000100320087
:10339000aafc07006008e20008003200e08c200070
:1033a00079f50700a2428000b34280008301d1007a
:1033b0000281d30080912000790007000000eb001b
:1033c000000006000000fe0061e7af00feff3700ce
:1033d000a2028000a10288000308bb00a2028800ac
:1033e00000008800010088002004240060c7a800b5
:1033f00060c7ae001084b2000001eb00513e200017
:103400001a1802000000000061e7af00feff37005d
:1034100061c7a90000000600889fbe008a9fbe0009
:103420000004be00341a0200000000000005be00c7
:103430008001eb000300e0004220ae000140fe00ee
:10344000341a0200000000000a0250008b8258006b
:103450000401540085815c00f6ff31004f05be0079
:103460004f04be0000000600374380000003eb005d
:1034700065962000c04a80001502780017001000f1
:10348000b4001b0034011b0094011b0064025200b5
:103490001520e100f7ff3a00440820000400b000c6
:1034a0001430a60000000600c0a521001a1c02006e
:1034b00000000000ecff3700811f7800829fbe00f3
:1034c0008001eb00314b8000688168003119e80011
:1034d000319949001189490064015100324b88003b
:1034e000410820000100b0001130a100214221005c
:1034f0000100e0004220ae00014001004f01be008b
:10350000cf00780000400600881f78000004780093
:1035100018017800880078000000eb000e1502000a
:1035200000000000180890000040a100100c980056
:10353000180890000050a100100c98001808900086
:103540000060a100100c9800100020004f047800cb
:1035500000000600a2028000a1028800f33f2000c4
:103560008380ea00008060000082eb0061e7af002a
:10357000feff370010c2ba00b000ba0001026200bc
:103580008480ea0004003a008381e900f9ff3100f9
:10359000a202880010000500a202880000000500b9
:1035a000831f7800821f7800801f7800341a020081
:1035b00000000000cf83e8006c08ac001602800019
:1035c00037027800a7027800cf1b4000cf9b48004d
:1035d000e01349000610a7006c08a900470052003c
:1035e000d7805a000000060030027800a002780060
:1035f000a70280006418420060884a00a502880083
:103600000483e800e0824a0061e7af00feff370074
:103610001400ba009480ba00a50288001601ba000e
:103620009681ba00a7028800000006000000000092
:103630000202e90005003900810170000300a600c4
:1036400003003700048009003158780000000600ac
:103650008201d1008301e9000300390003800900e1
:10366000311878000200a7003158780000000600e9
:103670008002eb00050878003200980041009800b5
:1036800011009800210098005300980064009800f1
:10369000750098008080eb00010898000100280068
:1036a0001108980000000600a186200001003700e4
:1036b00082007800110178000200e000040032006e
:1036c000800f5100faff3a009008780010000500c2
:1036d0000000050061e7af00feff370061c7a900e9
:1036e00000a0ef0000a0ef00a102800054a0ef00b6
:1036f000e2ff2f000209bb00a102880000000600c3
:10370000a1fe07000000e000060032000201fc00fc
:10371000409520000088eb000c2002000000000013
:103720000000fe0000000600b0417800b1c1510069
:1037300003003a000201e900fbff31000000050030
:103740000080eb004200af00100005000000060002
:10375000410920000f00a700410820000009900047
:10376000c311de006701610061c079000200de0064
:103770006100600000000600608620000000e0009c
:1037800004003200400920000000b0001030a40006
:103790004200ae000000050010000500801f780008
:1037a0000000eb005e1c0200000000004f00600003
:1037b0005e1c0200000000000080ea00000006001d
:1037c000f5428000160020000500e00002003200f3
:1037d00005000100000378000600780000000600e4
:1037e000a2028000a102880061e7af00feff37005f
:1037f0009080ba001000ba00a20288000000060003
:10380000e09320001040a1001050a1001060a10022
:1038100010f0a00038a5a80000000600c0428800f3
:10382000d14288005a190200000000002c1904003f
:103830000000000011028000c808dd004460af00f5
:103840000170a000cf9f7000004001000081eb00dc
:103850008081eb000094200050170400000000005d
:103860000201e900020039000280090001587800d5
:1038700000000600c02980004500de0061006000f5
:103880000000060000082000cf1f7000100280001a
:10389000004006006300b8008100d1000080d30022
:1038a000000006009f00a8009f20a800000006005e
:1038b0009f00a9009f20a90000000600414b28009e
:1038c00088190400000000004800dd00cf1f7000d0
:1038d000004006000080400000000600ffffff00df
:1038e000ffffff00ffffff00ffffff00ffffff00e4
:1038f000ffffff00ffffff00ffffff00ffffff00d4
:10390000ffffff00ffffff00ffffff00ffffff00c3
:10391000ffffff00ffffff00ffffff00ffffff00b3
:020000040000fa
:10401000ffffff00ffcd1200c026040000000000db
:020000040000fa
:10402000f86d040000000000f86d040000000000be
:10403000f86d040000000000f86d040000000000ae
:10404000f86d040000000000f86d0400000000009e
:10405000f86d0400000000005c1a0400000000007d
:10406000f86d040000000000f86d0400000000007e
:10407000f86d040000000000f86d0400000000006e
:10408000f86d040000000000f86d0400000000005e
:10409000f86d040000000000f86d0400000000004e
:1040a000f86d040000000000f86d0400000000003e
:1040b000f86d040000000000f86d0400000000002e
:1040c000f86d040000000000f86d0400000000001e
:1040d000f86d040000000000f86d0400000000000e
:1040e000f86d040000000000f86d040000000000fe
:1040f000f86d040000000000f86d040000000000ee
:10410000f86d040000000000f86d040000000000dd
:10411000f86d040000000000f86d040000000000cd
:10412000f86d040000000000f86d040000000000bd
:10413000f86d040000000000f86d040000000000ad
:10414000f86d040000000000f86d0400000000009d
:10415000f86d040000000000f86d0400000000008d
:10416000f86d040000000000f86d0400000000007d
:10417000f86d040000000000f86d0400000000006d
:10418000f86d040000000000f86d0400000000005d
:10419000de68040000000000f86d0400000000006c
:1041a000f86d040000000000f86d0400000000003d
:1041b000f86d040000000000f86d0400000000002d
:1041c000f86d040000000000a4810400000000005d
:1041d000f86d040000000000f86d0400000000000d
:1041e000f86d040000000000f86d040000000000fd
:1041f000f86d040000000000f86d040000000000ed
:10420000f86d040000000000f86d040000000000dc
:10421000f86d040000000000f86d040000000000cc
:10422000f86d040000000000f86d040000000000bc
:1042300072030400000000000c04040000000000f1
:10424000f86d040000000000f86d0400000000009c
:10425000f86d040000000000f86d0400000000008c
:08426000f86d040000000000ed
:020000040000fa
:10426800ffff00000d0a0000536500006e640000a7
:10427800696e0000672000004d6500007373000040
:104288006167000065200000746f00002043000093
:104298006c6f0000756400002e2e00002e000000d8
:1042a800486500006c6c00006f200000667200001a
:1042b8006f6d0000206400006576000069630000ef
:1042c800650000000d0a00004d65000073730000d2
:1042d8006167000065200000536500006e740000ef
:1042e800210000000d0a00004d65000073730000f6
:1042f800616700006520000046610000696c0000ed
:1043080065640000210000000d0a0000436c0000f5
:104318006f7500006420000069730000206e0000c3
:104328006f740000206300006f6e00006e6500006f
:104338006374000065640000000d00000a5200006c
:104348006563000065690000766500006420000070
:104358004d65000073730000616700006520000070
:104368006f6e0000207400006f7000006963000029
:10437800202500006c7500000d0a00005061000047
:10438800796c00006f610000643a0000002d0000a5
:1043980025780000000000000d0a00005b450000c1
:1043a8005a4300004f4d00005d2d00002d00000015
:1043b800536500006e640000696e0000672000000d
:1043c80048650000617200007462000065610000c9
:1043d800742e00002e2e00000048000065610000c9
:1043e800727400006265000061740000204f0000d4
:1043f8004b21000000480000656100007274000055
:1044080062650000617400002046000061690000d8
:104418006c6500006421000000530000656e000018
:10442800646900006e670000204d0000657300009d
:1044380073610000676500002e2e00002e0000004a
:104448004d6500007373000061670000652000007f
:10445800536500006e740000210000004d650000e7
:10446800737300006167000065200000466100006a
:10447800696c00006564000021000000436f0000c3
:104488006e6e000065630000746900006e670000ce
:104498002e2e00002e000000436f00006e6e0000fc
:1044a8006563000074650000642e0000004300008e
:1044b8006f6e00006e65000063740000696f000095
:1044c8006e20000065720000726f0000722100000b
:1044d800000d00000a5200006563000065690000d5
:1044e8007665000064200000467200006f6d0000d1
:1044f8003a200000256c000075200000546f000071
:1045080070690000633a0000202500006c75000007
:10451800204d0000657300007361000067650000ae
:104528003a20000000480000656100007274000035
:1045380062650000617400002046000061690000a7
:104548006c650000642c0000204e00006f740000b1
:10455800204300006f6e00006e6500006374000069
:10456800656400002100000050750000626c0000c6
:10457800697300006820000046610000696c000053
:10458800656400002c200000496e00007661000080
:104598006c690000642000004c6500006e67000034
:1045a800746800002100000050750000626c000073
:1045b800697300006820000046610000696c000013
:1045c800656400002c2000004e6f0000742000007d
:1045d800436f00006e6e00006563000074650000a4
:1045e8006421000000500000756200006c69000042
:1045f8007368000020460000616900006c650000d7
:10460800642c000020500000656e00006469000002
:104618006e67000020500000726500007669000097
:104628006f750000732000004d6500007373000073
:104638006167000065210000004300006c6f000006
:104648007365000064210000000000000d0a0000ee
:104658005b5300004d300000315d00002d2d00003f
:10466800000d00000a5b0000534d000030310000cf
:104678005d2d00002d4100007070000020430000f7
:104688006f6e00006669000067200000557000002a
:10469800646100007465000064210000000d0000e2
:1046a8000a5b0000534d0000303100005d2d000012
:1046b8002d4100007070000020560000617200005b
:1046c80069610000626c0000652000005570000000
:1046d800646100007465000064210000004100006e
:1046e80070700000436f00006e660000696700008c
:1046f800205300006176000065640000210000007e
:104708004c6f000061640000696e000067200000c3
:104718004e5600004d200000446500006661000010
:10472800756c000074730000000d00000a5b000047
:10473800534d0000303100005d2d00002d20000099
:104748004e5600004d20000046610000696c0000d4
:104758007572000065210000204300004c3a0000fb
:1047680020250000783d000025780000202000006a
:104778004f4300003a200000257800003d25000046
:104788007820000020430000433a00002025000064
:10479800783d000025780000004e0000564d0000ce
:1047a800204f00004b000000243100003030000092
:1047b800300000002432000030300000302d0000ae
:1047c800256c0000752d00004d4500005348000081
:1047d8000d0a0000002400003130000030310000d4
:1047e8000024000032300000303100002530000085
:1047f8003478000000550000343a00004465000099
:104808007669000063650000494400003b430000ee
:10481800343800003a4e000065740000776f0000dd
:10482800726b00004b650000793b000055310000b9
:104838003a4d00006573000068430000686100009d
:104848006e6e0000656c00003b550000313a0000b8
:104858004d65000073680000526f00006c65000031
:104868003b0000000d0a0000002400003130000069
:1048780030320000002400003230000030320000e6
:104888002530000034780000002500003034000096
:10489800780d00000a0000002431000030300000cc
:1048a80033000000243100003030000034000000e4
:1048b800243200003030000034250000303400007d
:1048c800780000002431000030300000350000007e
:1048d800243100003030000036000000243200008f
:1048e8003030000036250000303400007800000029
:1048f800243100003030000037000000243100006f
:104908003030000038000000243200003030000051
:1049180038250000303400007800000055320000cf
:104928003a560000434300003b550000323a00006d
:1049380056420000617400003b490000313a000013
:10494800546500006d70000065720000617400001d
:1049580075720000653b0000553400003a550000b0
:1049680070540000696d0000653b0000553400007c
:104978003a5400006f740000616c0000205400007d
:10498800783b0000553400003a5400006f74000072
:10499800616c000020520000783b00005534000094
:1049a8003a5400007820000046610000696c00005d
:1049b80075720000657300003b580000323a000031
:1049c800537400006174000075730000436f0000a9
:1049d8006465000000240000313000003039000018
:1049e800002400003230000030390000253000007b
:1049f800347800000024000031310000303000001d
:104a0800000a00005b5300004d300000315d0000db
:104a18002d2d0000446500007669000063650000e4
:104a280020490000443a0000202500006c75000071
:104a3800202d0000204d00004553000048000000d4
:104a48000f0a00000a0a00005b5300004d30000006
:104a5800315d00002d2d00005374000061720000cc
:104a6800746900006e67000020410000707000004b
:104a78002e2e00002e0000000d0a00005b530000df
:104a88004d300000315d00002d2d00004672000001
:104a9800616d0000657700006f7200006b3a0000de
:104aa80020000000763000002e35000030000000a5
:104ab8000a5b0000534d0000303100005d2d0000fe
:104ac8002d4900006e760000616c000069640000ea
:104ad800204d00006f640000756c00006520000028
:104ae800536500006c650000637400006564000095
:104af80021000000050f00000a010000010100006c
:104b08000a0100001f1c00001f1e00001f1e0000dd
:104b18001f1f00001e1f00001e1f00001f1c00009a
:104b28001f1e00001f1e00001f1f00001e1f000088
:104b38001e1f00000003000003060000010400001f
:104b48000602000005000000030500001f1c00000d
:104b58001f1e00001f1e00001f1f00001e1f000058
:104b68001e1f0000000000000d0a00005b4d000041
:104b780065730000685d00002d2d0000000d000029
:104b88000a5b00004d650000736800005d2d0000a1
:104b98002d50000065720000666f0000726d000005
:104ba800696e00006720000073630000616e0000fa
:104bb800206f00006e20000063680000616e000036
:104bc8006e6500006c3a00002025000075000000aa
:104bd8000d0a00005b4d000065730000685d000071
:104be8002d2d0000536500006e640000696e000002
:104bf80067200000757000006772000061640000a3
:104c08006520000072650000717500006573000082
:104c180074200000746f00003a200000256c00002a
:104c280075000000436f00006e6e000065630000b1
:104c3800746900006e670000207700006974000046
:104c4800682000006761000074650000776100005b
:104c5800792e00002e2e0000004300006f6e000029
:104c68006e65000063740000656400002077000032
:104c78006974000068200000676100007465000026
:104c880077610000790000000d0a00006d650000e2
:104c98007368000020720000656300006569000009
:104ca80076650000642000002e2e00002e00000013
:104cb8000d0a00005b4d000065730000685d000090
:104cc8002d2d00004e650000696700006862000035
:104cd8006f750000723a0000202500006c75000016
:104ce800205b0000257500005d0000000d0a000033
:104cf8005b4d000065730000685d00002d2d00000d
:104d080009430000686900006c6400002049000045
:104d1800443a0000202500006c750000205b00006c
:104d2800257500005d0000005570000067720000e6
:104d38006164000065640000207400006f200000ba
:104d4800436f00006f720000646900006e6100002c
:104d5800746f000072000000536500006e6400006c
:104d6800696e000067200000426500006163000072
:084d78006f6e00000000000056
:020000040000fa
:104d80008f0b21000e7f22000e0188000000000022
:104d9000000020000000e0000200320000012000be
:104da000200288000c000700c0f928000100200044
:104db0000f000700000020000000e00002003200a9
:104dc00000000200000000009892020000000000b5
:104dd0000040da000000fe00c05820000000e000a3
:104de0000200320000202000900188000000060030
:104df000a1028800800078000000eb001a00370054
:104e0000e280400054a0b4009101ba00e28040006a
:104e100054a0b4009102ba00e280400054a0b40053
:104e20000002eb00472bde00f507b200a601880068
:104e3000602ce10008003a000049eb000201e800a4
:104e4000020039003420ec0002f0a0008301e900e8
:104e5000f9ff3e00040037006128e1000100320044
:104e60000082eb00040007001101ba000200e0001c
:104e7000e3ff3a000000060004d0a300e20f49005f
:104e80001c003900810278003549ba000201e800af
:104e9000020039003420ec0002f0a0008301e90098
:104ea0000f0032002549ba000201e8000200390073
:104eb0003420ec0002f0a0008301e9000800320079
:104ec0000400e0000600320015c9ba000201e80043
:104ed000020039003420ec0002f0a0008301e90058
:104ee0008180e80054a0b4000300e000e2ff3a0033
:104ef000000006009102ba00055978008301e9001c
:104f0000f7ff3200c82ade00055978008301e90066
:104f1000f3ff32000400e000f1ff320011d9ba00c3
:104f2000eeff37001473040000000000ae280400f8
:104f3000000000002a2d040000000000ca30040018
:104f400000000000c43c0400000000000000040059
:104f5000000000000a00fa0011002000b1bf9f000d
:104f6000c0bf9f006a8057008f0d07004fb89700a1
:104f70000080fa00000006000a00fa00510020003c
:104f8000b1bf9f00c0bf9f006a805700880d070017
:104f90005fb897000080fa0000000600889fbe00fe
:104fa00080047800b08580000000e00004003a0032
:104fb0000e0007000084eb000000e0000800350050
:104fc000b88580000900e0000500320009004400b7
:104fd000060007000000e00001003d000084eb0037
:104fe000080078004f04be00000006008000780032
:104ff0000100e00003003a0000002000b0858800b6
:10500000000005000080eb0002002000828f5000ad
:1050100002003e00b18588000000eb0000000600a1
:10502000839f68000100e00002003d006000100066
:10503000e08018000300e00002003d006001110064
:10504000e08119002eee07004f00e00002003b0057
:1050500060001000e080180000000600811f78004a
:105060000100e00002003d0060001000e080180038
:105070000300e00002003d0060011100e081190022
:10508000050007004f00e00002003b006000100038
:10509000e08018000000060019ee07000400be00c2
:1050a000000006008001780002003700b159780046
:1050b0000201e9000200e000fcff3a0000000600e7
:1050c0008001780002003700815978000201e90070
:1050d0000200e000fcff3a0000000600000178003a
:1050e000b1417800035978000304e000fcff3a0066
:1050f0000000060080007800010178003104e00023
:10510000fdff3a0000005100000006000c003700cf
:10511000b0417800b1cf51000600320010002000ed
:105120009542780094cf52000b0031000080eb00d4
:10513000000006000304e000060032000201e9005e
:1051400001027800800278000200e000f0ff3a00df
:10515000000005000000eb0000000600889fbe0074
:10516000000478000100780082047800880178004b
:105170000901780011002000fd040700890f50008c
:10518000010032000004eb00080078004f04be006c
:10519000000006000000fa00e88157004fb99700b0
:1051a000e1e12000e08a2200020007000080fa000e
:1051b000000006006200fa00889fbe008a1f780087
:1051c00000057800810478000204780083007800ec
:1051d00080f92f000f0040001c0207009a979f00e3
:1051e000a9979f000000eb00b09f9f001885fb006f
:1051f0008a04fb000a05ea004f55de005002200039
:10520000808f54000d003200e10f55000b003a0072
:105210000a017800880078002f9097009f919700ee
:1052200003000100a0979f000000e0008e00320004
:105230003f9897000000e800b09f9f000a044400d8
:1052400050022000808f5400040032000900e0006a
:10525000e6ff3a003f989700840037000000eb001b
:10526000909f9f00809f9f00f0979f00e0979f0076
:10527000d0979f00c0979f000700370021052100ad
:10528000010050000000400061042100610078002e
:10529000df98970001007000d09f9f00880478007d
:1052a00009047800384578008a00fb0020052100b9
:1052b000d70107000000e000f0ff3a00a1c2b300f0
:1052c000814f55000e003a00cf8897000180e90019
:1052d000c08f9f0010007800c09f9f000000e0007a
:1052e00005003d000000ea00c09f9f005f98970006
:1052f0000020a000d09f9f000904e8000f003700a5
:10530000c09f9f000000eb0005003700f2ff270060
:10531000820f5000020032006a01b9000280400092
:105320000904780088047800b900fb000103b1008b
:10533000e98f5000f5ff3600c09f9f00e0c2b30028
:10534000984f1000020032000080eb001900370077
:10535000a0c2b300d84f100007003a00cf889700d2
:105360000180e900c08f9f0010007800a09f9f007f
:105370000804e800100037000000eb00a09f9f0029
:105380008800780005003700f3ff2700830f5000e6
:10539000020032006a02b9000400410001047800f2
:1053a000880078003101fb000203b100e90f5100d1
:1053b000f5ff3600a09f9f00984478008900fb000d
:1053c000e0032100920107000000e000020032002b
:1053d0000804e800010037008044eb00c97f9f000b
:1053e00080c6b30080cf540004003a0098cf140068
:1053f0000a003a006640500006003700c0c6b300fd
:1054000080cf540005003a0098cf140003003a0002
:1054100065404000c07f9f000804e800e3fb2f00c8
:105420008f8141001841780081f92f008f80400062
:10543000a0f92f000f004000100007000000e0005e
:1054400009003a00e1fb2f008f804000a0f92f00f7
:105450000f0040003d0807000000e000020035009a
:105460000804e80061ff37000080eb004f0578007a
:105470004f04be000080fa0000000600889fbe00b6
:105480008a1f7800000478008244780003057800c1
:1054900070c6b30080cf540021003c0000c0e9007a
:1054a00080cf5400cd003d007240500080cf5400aa
:1054b000340132000d003c006c40500080cf54009d
:1054c00047013c0000c0e90080cf5400c3003d000c
:1054d00050c2b30080cf54003e0132007c404000f7
:1054e00080cf54003e013a00bc00370010c6b30024
:1054f00080cf5400b900320004003c0069405000e5
:1055000080cf540036013a006600370030c6b30041
:1055100080cf5400180032000040e8000900370036
:1055200000c7b30080cf54000801320008003c00df
:1055300000c0e90080cf5400d100320059003c0087
:105540006540500080cf540025013a000f0037001d
:1055500050c7b30080cf5400520032006340400077
:1055600080cf54004f0032006540500080cf54007f
:105570001b013a00030137001181e900820878001d
:1055800078009000127578001b01370028609000a9
:10559000c2c6b300824f500007003a0011017800e4
:1055a00064005100800878001000be004f89de00c2
:1055b000820178001100370012c7b300824f5000fb
:1055c00003003200a2c6b300824f500006003a002a
:1055d0001101780068005100800878005001be0079
:1055e0004000be00050037001180e9008008780007
:1055f00010007800cf80de006109b900009cbe0079
:105600000294be002862900085c6b300854f520008
:105610000d00320025c6b300854f520004003a0049
:105620000000fb00cf80de006109b90008003700f0
:1056300045c7b300854f520003003200e6c2420066
:10564000854f520004003a00cf80de006109b900a6
:10565000009cbe000294be003802be002803be00bb
:1056600078009000d1c2b300e00f5200e08f5a00e2
:10567000e00f5b00e08f5b000800350088109000b1
:105680000118a30002003200b1c2b30003003700ca
:105690000108a3004c00320001c2b300017578007c
:1056a0004700370028609000c2c6b300824f500008
:1056b00006003a001101780064005100800878006b
:1056c0001000be006011b8001100370012c7b3000f
:1056d000824f500003003200a2c6b300824f500038
:1056e00006003a0011017800680051008008780037
:1056f0005001be004000be00050037001180e900e7
:1057000080087800100078008000eb006011b8007d
:10571000009cbe000294be002862900085c6b300c3
:10572000854f52000d00320025c6b300854f520050
:1057300004003a000080fb008000eb006011b8001c
:105740000800370045c7b300854f52000300320000
:10575000e6c24200854f520004003a008000eb0090
:105760006011b800009cbe000294be0008109000ba
:105770000038a300140032003800be002801be002b
:10578000e00f5000e08f5800e00f5900e08f590003
:105790000d00320080c7b30080cf540003003200f8
:1057a00080c5b30080cf540007003a007800900015
:1057b00001c3b300017578000000e80009757800a6
:1057c0000000e80070049800780090000005450093
:1057d0006a049800894078006700370028619000cb
:1057e000c0c4b300804f510006003a001101780098
:1057f00068005100800878005001be004000be00e3
:10580000050037001101780064005100800878001d
:105810001000be00110c0700009cbe000294be00e8
:10582000b8009000780090000100e00002003d0008
:10583000d1c2b30008003700881090000118a300ff
:1058400002003200b1c2b300030037000108a30018
:105850000400320001c2b300017578000000e800c6
:105860007004980078009000000545006a049800d4
:105870008940780008007800e203070060003700e4
:1058800028619000c3c6b3001180e900834f510026
:10589000220032000a003c00e4c15100834f510055
:1058a0002500320083c1e800834f5100130032000d
:1058b000e8c15100834f51001e003a000a00370032
:1058c00043c7b300834f51001b003200e6c14100c3
:1058d000834f510018003200e9c15100834f51003d
:1058e00014003a00050037008008780010007800a6
:1058f000485c900008487800410037008008780034
:1059000010007800680a9000cfa2de00612bb90079
:105910000498be000690be00390037008008780069
:105920001000780068099000cf91de000288be0068
:10593000330037001180e9008008780010007800fb
:10594000680c9000080878002d0037001180e900ed
:105950008008780010007800cf80de006109b9006f
:10596000009cbe000294be00780090000005450037
:105970006a04980081c7b30008007800c4050700d6
:105980001f0037001180e9008008780010057800ba
:105990006a049800d80c90000900e00004003d0063
:1059a0000a007800d3fd0700800478000700370064
:1059b000090178008000eb000a007800400307002e
:1059c0000000e000010032008a045000190c980029
:1059d0000b0037007800900009757800060037004a
:1059e00078009000000545000904e00001003a003d
:1059f00059c2b300094d78000000e8007004980017
:105a00000000eb004f0578004f04be0000000600c8
:105a10000001eb00030037000201e8000404e0008d
:105a2000070032006103b8006112b800860142002d
:105a300066427a00814f5200f7ff3a0001003700ba
:105a40008001eb00030078000000060001087800e8
:105a500000000600889fbe00000478000100780066
:105a60008204780088017800090178001100200084
:105a7000bf020700890f5000010032000004eb0054
:105a8000080078004f04be00000006000000fa0085
:105a9000e88157004fb99700e1e12000a0d2220031
:105aa000020007000080fa00000006006200fa0011
:105ab000889fbe008a1f7800000578008104780066
:105ac000020478008300780080f92f000f00400066
:105ad000deff07009a979f00a9979f000000eb0048
:105ae000b09f9f001885fb008a04fb000a05ea00ae
:105af0004f55de0050022000808f54000d00320010
:105b0000e10f55000b003a000a0178008800780088
:105b10002f9097009f91970003000100a0979f008e
:105b20000000e0008e0032003f9897000000e8007f
:105b3000b09f9f000a04440050022000808f540050
:105b4000040032000900e000e6ff3a003f989700a9
:105b5000840037000000eb00909f9f00809f9f0013
:105b6000f0979f00e0979f00d0979f00c0979f00fd
:105b700007003700c106210001005000000040006e
:105b80000106210061007800df9897000100700095
:105b9000d09f9f0088047800090478003845780079
:105ba0008a00fb00c006210099ff07000000e0000a
:105bb000f0ff3a00a1c2b300814f55000e003a0039
:105bc000cf8897000180e900c08f9f001000780007
:105bd000c09f9f000000e00005003d000000ea00bb
:105be000c09f9f005f9897000020a000d09f9f005b
:105bf0000904e8000f003700c09f9f000000eb0081
:105c000005003700f2ff2700820f5000020032002b
:105c10006a01b90002804000090478008804780015
:105c2000b900fb000103b100e98f5000f5ff360019
:105c3000c09f9f00e0c2b300984f100002003200e6
:105c40000080eb0019003700a0c2b300d84f10004d
:105c500007003a00cf8897000180e900c08f9f00bd
:105c600010007800a09f9f000804e8001000370093
:105c70000000eb00a09f9f0088007800050037001f
:105c8000f3ff2700830f5000020032006a02b900c0
:105c90000400410001047800880078003101fb0015
:105ca0000203b100e90f5100f5ff3600a09f9f00ed
:105cb000984478008900fb008005210054ff07000c
:105cc0000000e000020032000804e8000100370094
:105cd0008044eb00c97f9f0080c6b30080cf540092
:105ce00004003a0098cf14000a003a0066405000c1
:105cf00006003700c0c6b30080cf540005003a004c
:105d000098cf140003003a0065404000c07f9f0018
:105d10000804e8001801fb00e3fb2f008f8141001d
:105d200081f92f008f804000a0f92f000f00400064
:105d3000100007000000e00009003a00e1fb2f001e
:105d40008f804000a0f92f000f004000ff050700e2
:105d50000000e000020035000804e80061ff3700a1
:105d60000080eb004f0578004f04be000080fa0071
:105d700000000600881f7800e4c6b300844f51007d
:105d8000b600320010003c006b425200844f5100bc
:105d90001800320005003c0054c2b300844f51008b
:105da000ee00320084c5b3000f00370044c6b300d4
:105db000844f51001400320065424200844f51006c
:105dc000e9003a001000370004c7b300844f5100c7
:105dd000d50032005300350065424200844f510027
:105de0005000320063424200844f5100de003a000e
:105df0004c0037001181e90082087800f000900023
:105e000012417800d600370020629000c5c6b3006a
:105e1000854f520007003a009102780064825200d8
:105e2000840878001402be004fabde0086037800c1
:105e30001100370015c7b300854f52000300320030
:105e4000a5c6b300854f520006003a0091027800c3
:105e500068825200840878005403be004402be00e9
:105e6000050037001182e9008408780014027800e8
:105e7000cfa2de00612bb9000498be000690be00e0
:105e8000a060900088c6b30088cf50000d0032009b
:105e900028c6b30088cf500004003a000402fb007b
:105ea000cfa2de00612bb9000800370048c7b3005d
:105eb00088cf5000030032006644440088cf500071
:105ec00004003a00cfa2de00612bb9000498be00a6
:105ed0000690be003002be002003be00f00090001d
:105ee000e00f5200e08f5a00e00f5b00e08f5b0094
:105ef00002003d00d4c2b300080037000012900039
:105f00000418a30002003200b4c2b300030037003b
:105f10000408a3004c00320004c2b30084f17800ee
:105f20004700370020629000c5c6b300854f52007d
:105f300006003a00910278006482520084087800da
:105f40001402be006033b8001100370015c7b3005b
:105f5000854f520003003200a5c6b300854f5200a2
:105f600006003a00910278006882520084087800a6
:105f70005403be004402be00050037001182e90050
:105f800084087800140278008002eb006033b800c7
:105f90000498be000690be00a060900088c6b300c2
:105fa00088cf50000d00320028c6b30088cf5000c3
:105fb00004003a000482fb008002eb006033b8006a
:105fc0000800370048c7b30088cf500003003200f4
:105fd0006644440088cf500004003a008002eb0081
:105fe0006033b8000498be000690be008010900098
:105ff0000138a300140032003002be002003be00ae
:10600000e00f5200e08f5a00e00f5b00e08f5b0072
:106010000d00320081c7b300814f510003003200f0
:1060200081c5b300814f510007003a00f000900095
:1060300004c3b30084f178008100e80082f17800a5
:106040008100e80071009800f0009000818141001b
:1060500063009800824078003e003700a061900005
:10606000c4c6b3001181e90084cf51002200320080
:106070000a003c006442520084cf510025003200e7
:1060800004c2e80084cf510013003200684252007d
:1060900084cf51001e003a000a00370044c7b30005
:1060a00084cf51001b0032006642420084cf510071
:1060b000180032006942520084cf510014003a00a7
:1060c0000500370082087800920078004058900060
:1060d000804878002c003700820878009200780011
:1060e000600a9000cfa2de00612bb9008498be0048
:1060f0008690be0024003700820878009200780065
:1061000060099000cf91de008288be001e0037003b
:106110001181e90082087800920078006008900000
:1061200080087800180037001181e90082087800a3
:1061300012027800cfa2de00612bb9000498be00e5
:106140000690be00f000900081814100630098003d
:1061500081c7b300ce0307000b003700f0009000aa
:1061600082f1780006003700f00090008181410044
:106170000204e00001003a0052c2b30082497800f4
:106180008100e800710098000000eb004f047800e7
:1061900000000600889fbe0000047800010078001f
